{
  "contractName": "P2PInsurance",
  "abi": [
    {
      "inputs": [
        {
          "internalType": "string",
          "name": "_item",
          "type": "string"
        },
        {
          "internalType": "uint256",
          "name": "_coverage",
          "type": "uint256"
        },
        {
          "internalType": "uint256",
          "name": "_premium",
          "type": "uint256"
        },
        {
          "internalType": "uint256",
          "name": "_duration",
          "type": "uint256"
        }
      ],
      "stateMutability": "nonpayable",
      "type": "constructor"
    },
    {
      "inputs": [
        {
          "internalType": "uint256",
          "name": "",
          "type": "uint256"
        }
      ],
      "name": "claims",
      "outputs": [
        {
          "internalType": "address",
          "name": "claimant",
          "type": "address"
        },
        {
          "internalType": "uint256",
          "name": "amount",
          "type": "uint256"
        },
        {
          "internalType": "bool",
          "name": "approved",
          "type": "bool"
        },
        {
          "internalType": "bool",
          "name": "exists",
          "type": "bool"
        }
      ],
      "stateMutability": "view",
      "type": "function"
    },
    {
      "inputs": [],
      "name": "coverage",
      "outputs": [
        {
          "internalType": "uint256",
          "name": "",
          "type": "uint256"
        }
      ],
      "stateMutability": "view",
      "type": "function"
    },
    {
      "inputs": [],
      "name": "duration",
      "outputs": [
        {
          "internalType": "uint256",
          "name": "",
          "type": "uint256"
        }
      ],
      "stateMutability": "view",
      "type": "function"
    },
    {
      "inputs": [],
      "name": "isPolicyOpen",
      "outputs": [
        {
          "internalType": "bool",
          "name": "",
          "type": "bool"
        }
      ],
      "stateMutability": "view",
      "type": "function"
    },
    {
      "inputs": [],
      "name": "item",
      "outputs": [
        {
          "internalType": "string",
          "name": "",
          "type": "string"
        }
      ],
      "stateMutability": "view",
      "type": "function"
    },
    {
      "inputs": [],
      "name": "numClaims",
      "outputs": [
        {
          "internalType": "uint256",
          "name": "",
          "type": "uint256"
        }
      ],
      "stateMutability": "view",
      "type": "function"
    },
    {
      "inputs": [
        {
          "internalType": "address",
          "name": "",
          "type": "address"
        }
      ],
      "name": "policyholderBalances",
      "outputs": [
        {
          "internalType": "uint256",
          "name": "",
          "type": "uint256"
        }
      ],
      "stateMutability": "view",
      "type": "function"
    },
    {
      "inputs": [
        {
          "internalType": "uint256",
          "name": "",
          "type": "uint256"
        }
      ],
      "name": "policyholders",
      "outputs": [
        {
          "internalType": "address",
          "name": "",
          "type": "address"
        }
      ],
      "stateMutability": "view",
      "type": "function"
    },
    {
      "inputs": [],
      "name": "poolBalance",
      "outputs": [
        {
          "internalType": "uint256",
          "name": "",
          "type": "uint256"
        }
      ],
      "stateMutability": "view",
      "type": "function"
    },
    {
      "inputs": [],
      "name": "premium",
      "outputs": [
        {
          "internalType": "uint256",
          "name": "",
          "type": "uint256"
        }
      ],
      "stateMutability": "view",
      "type": "function"
    },
    {
      "inputs": [],
      "name": "joinPolicy",
      "outputs": [],
      "stateMutability": "payable",
      "type": "function"
    },
    {
      "inputs": [
        {
          "internalType": "uint256",
          "name": "_amount",
          "type": "uint256"
        }
      ],
      "name": "submitClaim",
      "outputs": [],
      "stateMutability": "nonpayable",
      "type": "function"
    },
    {
      "inputs": [
        {
          "internalType": "uint256",
          "name": "_claimId",
          "type": "uint256"
        }
      ],
      "name": "approveClaim",
      "outputs": [],
      "stateMutability": "nonpayable",
      "type": "function"
    },
    {
      "inputs": [],
      "name": "closePolicy",
      "outputs": [],
      "stateMutability": "nonpayable",
      "type": "function"
    },
    {
      "inputs": [],
      "name": "withdrawExcess",
      "outputs": [],
      "stateMutability": "nonpayable",
      "type": "function"
    }
  ],
  "bytecode": "0x60806040523480156200001157600080fd5b5060405162001d9638038062001d96833981810160405281019062000037919062000291565b336000806101000a81548173ffffffffffffffffffffffffffffffffffffffff021916908373ffffffffffffffffffffffffffffffffffffffff160217905550836001908162000088919062000563565b508260028190555081600381905550806004819055506001600660006101000a81548160ff021916908315150217905550505050506200064a565b6000604051905090565b600080fd5b600080fd5b600080fd5b600080fd5b6000601f19601f8301169050919050565b7f4e487b7100000000000000000000000000000000000000000000000000000000600052604160045260246000fd5b6200012c82620000e1565b810181811067ffffffffffffffff821117156200014e576200014d620000f2565b5b80604052505050565b600062000163620000c3565b905062000171828262000121565b919050565b600067ffffffffffffffff821115620001945762000193620000f2565b5b6200019f82620000e1565b9050602081019050919050565b60005b83811015620001cc578082015181840152602081019050620001af565b60008484015250505050565b6000620001ef620001e98462000176565b62000157565b9050828152602081018484840111156200020e576200020d620000dc565b5b6200021b848285620001ac565b509392505050565b600082601f8301126200023b576200023a620000d7565b5b81516200024d848260208601620001d8565b91505092915050565b6000819050919050565b6200026b8162000256565b81146200027757600080fd5b50565b6000815190506200028b8162000260565b92915050565b60008060008060808587031215620002ae57620002ad620000cd565b5b600085015167ffffffffffffffff811115620002cf57620002ce620000d2565b5b620002dd8782880162000223565b9450506020620002f0878288016200027a565b935050604062000303878288016200027a565b925050606062000316878288016200027a565b91505092959194509250565b600081519050919050565b7f4e487b7100000000000000000000000000000000000000000000000000000000600052602260045260246000fd5b600060028204905060018216806200037557607f821691505b6020821081036200038b576200038a6200032d565b5b50919050565b60008190508160005260206000209050919050565b60006020601f8301049050919050565b600082821b905092915050565b600060088302620003f57fffffffffffffffffffffffffffffffffffffffffffffffffffffffffffffffff82620003b6565b620004018683620003b6565b95508019841693508086168417925050509392505050565b6000819050919050565b6000620004446200043e620004388462000256565b62000419565b62000256565b9050919050565b6000819050919050565b620004608362000423565b620004786200046f826200044b565b848454620003c3565b825550505050565b600090565b6200048f62000480565b6200049c81848462000455565b505050565b5b81811015620004c457620004b860008262000485565b600181019050620004a2565b5050565b601f8211156200051357620004dd8162000391565b620004e884620003a6565b81016020851015620004f8578190505b620005106200050785620003a6565b830182620004a1565b50505b505050565b600082821c905092915050565b6000620005386000198460080262000518565b1980831691505092915050565b600062000553838362000525565b9150826002028217905092915050565b6200056e8262000322565b67ffffffffffffffff8111156200058a5762000589620000f2565b5b6200059682546200035c565b620005a3828285620004c8565b600060209050601f831160018114620005db5760008415620005c6578287015190505b620005d2858262000545565b86555062000642565b601f198416620005eb8662000391565b60005b828110156200061557848901518255600182019150602085019450602081019050620005ee565b8683101562000635578489015162000631601f89168262000525565b8355505b6001600288020188555050505b505050505050565b61173c806200065a6000396000f3fe6080604052600436106100e85760003560e01c8063e0a73a931161008a578063ed130a2111610059578063ed130a21146102a0578063ee8f6a0e146102dd578063f2a4a82e14610308578063fc0fc84914610333576100e8565b8063e0a73a93146101f6578063e24ccfd614610221578063e24f97c91461024c578063e7f2acd814610263576100e8565b806396365d44116100c657806396365d441461016a578063a888c2cd14610195578063c264a063146101d5578063cdd3dd4e146101ec576100e8565b80630fb5a6b4146100ed57806346e30135146101185780636aa14a9614610141575b600080fd5b3480156100f957600080fd5b5061010261035e565b60405161010f9190610d58565b60405180910390f35b34801561012457600080fd5b5061013f600480360381019061013a9190610da4565b610364565b005b34801561014d57600080fd5b5061016860048036038101906101639190610da4565b6105c2565b005b34801561017657600080fd5b5061017f61087c565b60405161018c9190610d58565b60405180910390f35b3480156101a157600080fd5b506101bc60048036038101906101b79190610da4565b610882565b6040516101cc9493929190610e2d565b60405180910390f35b3480156101e157600080fd5b506101ea6108ec565b005b6101f4610a35565b005b34801561020257600080fd5b5061020b610b8a565b6040516102189190610d58565b60405180910390f35b34801561022d57600080fd5b50610236610b90565b6040516102439190610e72565b60405180910390f35b34801561025857600080fd5b50610261610ba3565b005b34801561026f57600080fd5b5061028a60048036038101906102859190610eb9565b610c4e565b6040516102979190610d58565b60405180910390f35b3480156102ac57600080fd5b506102c760048036038101906102c29190610da4565b610c66565b6040516102d49190610ee6565b60405180910390f35b3480156102e957600080fd5b506102f2610ca5565b6040516102ff9190610d58565b60405180910390f35b34801561031457600080fd5b5061031d610cab565b60405161032a9190610f91565b60405180910390f35b34801561033f57600080fd5b50610348610d39565b6040516103559190610d58565b60405180910390f35b60045481565b60008054906101000a900473ffffffffffffffffffffffffffffffffffffffff1673ffffffffffffffffffffffffffffffffffffffff163373ffffffffffffffffffffffffffffffffffffffff16146103f2576040517f08c379a00000000000000000000000000000000000000000000000000000000081526004016103e990611025565b60405180910390fd5b600a548110610436576040517f08c379a000000000000000000000000000000000000000000000000000000000815260040161042d90611091565b60405180910390fd5b6009600082815260200190815260200160002060020160019054906101000a900460ff16610499576040517f08c379a0000000000000000000000000000000000000000000000000000000008152600401610490906110fd565b60405180910390fd5b6009600082815260200190815260200160002060020160009054906101000a900460ff16156104fd576040517f08c379a00000000000000000000000000000000000000000000000000000000081526004016104f490611169565b60405180910390fd5b60016009600083815260200190815260200160002060020160006101000a81548160ff0219169083151502179055506009600082815260200190815260200160002060000160009054906101000a900473ffffffffffffffffffffffffffffffffffffffff1673ffffffffffffffffffffffffffffffffffffffff166108fc60096000848152602001908152602001600020600101549081150290604051600060405180830381858888f193505050501580156105be573d6000803e3d6000fd5b5050565b60008054906101000a900473ffffffffffffffffffffffffffffffffffffffff1673ffffffffffffffffffffffffffffffffffffffff163373ffffffffffffffffffffffffffffffffffffffff1603610650576040517f08c379a0000000000000000000000000000000000000000000000000000000008152600401610647906111d5565b60405180910390fd5b600254811115610695576040517f08c379a000000000000000000000000000000000000000000000000000000000815260040161068c90611241565b60405180910390fd5b80600860003373ffffffffffffffffffffffffffffffffffffffff1673ffffffffffffffffffffffffffffffffffffffff168152602001908152602001600020541015610717576040517f08c379a000000000000000000000000000000000000000000000000000000000815260040161070e906112ad565b60405180910390fd5b80600554101561075c576040517f08c379a000000000000000000000000000000000000000000000000000000000815260040161075390611319565b60405180910390fd5b600060405180608001604052803373ffffffffffffffffffffffffffffffffffffffff1681526020018381526020016000151581526020016001151581525090508060096000600a54815260200190815260200160002060008201518160000160006101000a81548173ffffffffffffffffffffffffffffffffffffffff021916908373ffffffffffffffffffffffffffffffffffffffff1602179055506020820151816001015560408201518160020160006101000a81548160ff02191690831515021790555060608201518160020160016101000a81548160ff021916908315150217905550905050600a600081548092919061085a90611368565b9190505550816005600082825461087191906113b0565b925050819055505050565b60055481565b60096020528060005260406000206000915090508060000160009054906101000a900473ffffffffffffffffffffffffffffffffffffffff16908060010154908060020160009054906101000a900460ff16908060020160019054906101000a900460ff16905084565b60008054906101000a900473ffffffffffffffffffffffffffffffffffffffff1673ffffffffffffffffffffffffffffffffffffffff163373ffffffffffffffffffffffffffffffffffffffff161461097a576040517f08c379a000000000000000000000000000000000000000000000000000000000815260040161097190611456565b60405180910390fd5b600660009054906101000a900460ff16156109ca576040517f08c379a00000000000000000000000000000000000000000000000000000000081526004016109c1906114e8565b60405180910390fd5b60008054906101000a900473ffffffffffffffffffffffffffffffffffffffff1673ffffffffffffffffffffffffffffffffffffffff166108fc6005549081150290604051600060405180830381858888f19350505050158015610a32573d6000803e3d6000fd5b50565b600660009054906101000a900460ff16610a84576040517f08c379a0000000000000000000000000000000000000000000000000000000008152600401610a7b90611554565b60405180910390fd5b6003543414610ac8576040517f08c379a0000000000000000000000000000000000000000000000000000000008152600401610abf906115c0565b60405180910390fd5b6007339080600181540180825580915050600190039060005260206000200160009091909190916101000a81548173ffffffffffffffffffffffffffffffffffffffff021916908373ffffffffffffffffffffffffffffffffffffffff16021790555034600860003373ffffffffffffffffffffffffffffffffffffffff1673ffffffffffffffffffffffffffffffffffffffff168152602001908152602001600020819055503460056000828254610b8191906115e0565b92505081905550565b60035481565b600660009054906101000a900460ff1681565b60008054906101000a900473ffffffffffffffffffffffffffffffffffffffff1673ffffffffffffffffffffffffffffffffffffffff163373ffffffffffffffffffffffffffffffffffffffff1614610c31576040517f08c379a0000000000000000000000000000000000000000000000000000000008152600401610c2890611686565b60405180910390fd5b6000600660006101000a81548160ff021916908315150217905550565b60086020528060005260406000206000915090505481565b60078181548110610c7657600080fd5b906000526020600020016000915054906101000a900473ffffffffffffffffffffffffffffffffffffffff1681565b60025481565b60018054610cb8906116d5565b80601f0160208091040260200160405190810160405280929190818152602001828054610ce4906116d5565b8015610d315780601f10610d0657610100808354040283529160200191610d31565b820191906000526020600020905b815481529060010190602001808311610d1457829003601f168201915b505050505081565b600a5481565b6000819050919050565b610d5281610d3f565b82525050565b6000602082019050610d6d6000830184610d49565b92915050565b600080fd5b610d8181610d3f565b8114610d8c57600080fd5b50565b600081359050610d9e81610d78565b92915050565b600060208284031215610dba57610db9610d73565b5b6000610dc884828501610d8f565b91505092915050565b600073ffffffffffffffffffffffffffffffffffffffff82169050919050565b6000610dfc82610dd1565b9050919050565b610e0c81610df1565b82525050565b60008115159050919050565b610e2781610e12565b82525050565b6000608082019050610e426000830187610e03565b610e4f6020830186610d49565b610e5c6040830185610e1e565b610e696060830184610e1e565b95945050505050565b6000602082019050610e876000830184610e1e565b92915050565b610e9681610df1565b8114610ea157600080fd5b50565b600081359050610eb381610e8d565b92915050565b600060208284031215610ecf57610ece610d73565b5b6000610edd84828501610ea4565b91505092915050565b6000602082019050610efb6000830184610e03565b92915050565b600081519050919050565b600082825260208201905092915050565b60005b83811015610f3b578082015181840152602081019050610f20565b60008484015250505050565b6000601f19601f8301169050919050565b6000610f6382610f01565b610f6d8185610f0c565b9350610f7d818560208601610f1d565b610f8681610f47565b840191505092915050565b60006020820190508181036000830152610fab8184610f58565b905092915050565b7f4f6e6c7920746865206f776e65722063616e20617070726f766520636c61696d60008201527f7300000000000000000000000000000000000000000000000000000000000000602082015250565b600061100f602183610f0c565b915061101a82610fb3565b604082019050919050565b6000602082019050818103600083015261103e81611002565b9050919050565b7f496e76616c696420636c61696d20494400000000000000000000000000000000600082015250565b600061107b601083610f0c565b915061108682611045565b602082019050919050565b600060208201905081810360008301526110aa8161106e565b9050919050565b7f436c61696d20646f6573206e6f74206578697374000000000000000000000000600082015250565b60006110e7601483610f0c565b91506110f2826110b1565b602082019050919050565b60006020820190508181036000830152611116816110da565b9050919050565b7f436c61696d2068617320616c7265616479206265656e20617070726f76656400600082015250565b6000611153601f83610f0c565b915061115e8261111d565b602082019050919050565b6000602082019050818103600083015261118281611146565b9050919050565b7f4f776e65722063616e6e6f74207375626d6974206120636c61696d0000000000600082015250565b60006111bf601b83610f0c565b91506111ca82611189565b602082019050919050565b600060208201905081810360008301526111ee816111b2565b9050919050565b7f436c61696d20616d6f756e74206578636565647320636f766572616765000000600082015250565b600061122b601d83610f0c565b9150611236826111f5565b602082019050919050565b6000602082019050818103600083015261125a8161121e565b9050919050565b7f496e73756666696369656e742066756e64730000000000000000000000000000600082015250565b6000611297601283610f0c565b91506112a282611261565b602082019050919050565b600060208201905081810360008301526112c68161128a565b9050919050565b7f496e73756666696369656e742066756e647320696e2074686520706f6f6c0000600082015250565b6000611303601e83610f0c565b915061130e826112cd565b602082019050919050565b60006020820190508181036000830152611332816112f6565b9050919050565b7f4e487b7100000000000000000000000000000000000000000000000000000000600052601160045260246000fd5b600061137382610d3f565b91507fffffffffffffffffffffffffffffffffffffffffffffffffffffffffffffffff82036113a5576113a4611339565b5b600182019050919050565b60006113bb82610d3f565b91506113c683610d3f565b92508282039050818111156113de576113dd611339565b5b92915050565b7f4f6e6c7920746865206f776e65722063616e207769746864726177206578636560008201527f73732066756e6473000000000000000000000000000000000000000000000000602082015250565b6000611440602883610f0c565b915061144b826113e4565b604082019050919050565b6000602082019050818103600083015261146f81611433565b9050919050565b7f506f6c696379206d75737420626520636c6f73656420746f207769746864726160008201527f77206578636573732066756e6473000000000000000000000000000000000000602082015250565b60006114d2602e83610f0c565b91506114dd82611476565b604082019050919050565b60006020820190508181036000830152611501816114c5565b9050919050565b7f506f6c69637920697320636c6f73656400000000000000000000000000000000600082015250565b600061153e601083610f0c565b915061154982611508565b602082019050919050565b6000602082019050818103600083015261156d81611531565b9050919050565b7f5072656d69756d20616d6f756e74207265717569726564000000000000000000600082015250565b60006115aa601783610f0c565b91506115b582611574565b602082019050919050565b600060208201905081810360008301526115d98161159d565b9050919050565b60006115eb82610d3f565b91506115f683610d3f565b925082820190508082111561160e5761160d611339565b5b92915050565b7f4f6e6c7920746865206f776e65722063616e20636c6f73652074686520706f6c60008201527f6963790000000000000000000000000000000000000000000000000000000000602082015250565b6000611670602383610f0c565b915061167b82611614565b604082019050919050565b6000602082019050818103600083015261169f81611663565b9050919050565b7f4e487b7100000000000000000000000000000000000000000000000000000000600052602260045260246000fd5b600060028204905060018216806116ed57607f821691505b602082108103611700576116ff6116a6565b5b5091905056fea2646970667358221220105f5a60b58947df05593585668867ac2e151ed69f25f962a3384238c8df733064736f6c63430008120033",
  "immutableReferences": {},
  "source": "// SPDX-License-Identifier: MIT\r\npragma solidity ^0.8.0;\r\n\r\ncontract P2PInsurance {\r\n    address owner;\r\n    string public item;\r\n    uint256 public coverage;\r\n    uint256 public premium;\r\n    uint256 public duration;\r\n    uint256 public poolBalance;\r\n    bool public isPolicyOpen;\r\n    address[] public policyholders;\r\n    mapping(address => uint256) public policyholderBalances;\r\n\r\n    // Define the struct for claims\r\n    struct Claim {\r\n        address claimant;\r\n        uint256 amount;\r\n        bool approved;\r\n        bool exists;\r\n    }\r\n\r\n    // Define the list of claims\r\n    mapping(uint256 => Claim) public claims;\r\n    uint256 public numClaims;\r\n\r\n    // Define the constructor function\r\n    constructor(\r\n        string memory _item,\r\n        uint256 _coverage,\r\n        uint256 _premium,\r\n        uint256 _duration\r\n    ) {\r\n        owner = msg.sender;\r\n        item = _item;\r\n        coverage = _coverage;\r\n        premium = _premium;\r\n        duration = _duration;\r\n        isPolicyOpen = true;\r\n    }\r\n\r\n    // Define the function for joining the policy\r\n    function joinPolicy() public payable {\r\n        require(isPolicyOpen, \"Policy is closed\");\r\n        require(msg.value == premium, \"Premium amount required\");\r\n        policyholders.push(msg.sender);\r\n        policyholderBalances[msg.sender] = msg.value;\r\n        poolBalance += msg.value;\r\n    }\r\n\r\n    // Define the function for submitting a claim\r\n    function submitClaim(uint256 _amount) public {\r\n        require(msg.sender != owner, \"Owner cannot submit a claim\");\r\n        require(_amount <= coverage, \"Claim amount exceeds coverage\");\r\n        require(\r\n            policyholderBalances[msg.sender] >= _amount,\r\n            \"Insufficient funds\"\r\n        );\r\n        require(poolBalance >= _amount, \"Insufficient funds in the pool\");\r\n\r\n        // Create a new claim\r\n        Claim memory newClaim = Claim({\r\n            claimant: msg.sender,\r\n            amount: _amount,\r\n            approved: false,\r\n            exists: true\r\n        });\r\n\r\n        // Add the claim to the list\r\n        claims[numClaims] = newClaim;\r\n        numClaims++;\r\n\r\n        // Update the pool balance\r\n        poolBalance -= _amount;\r\n    }\r\n\r\n    // Define the function for approving a claim\r\n    function approveClaim(uint256 _claimId) public {\r\n        require(msg.sender == owner, \"Only the owner can approve claims\");\r\n        require(_claimId < numClaims, \"Invalid claim ID\");\r\n        require(claims[_claimId].exists, \"Claim does not exist\");\r\n        require(!claims[_claimId].approved, \"Claim has already been approved\");\r\n        claims[_claimId].approved = true;\r\n        payable(claims[_claimId].claimant).transfer(claims[_claimId].amount);\r\n    }\r\n\r\n    // Define the function for closing the policy\r\n    function closePolicy() public {\r\n        require(msg.sender == owner, \"Only the owner can close the policy\");\r\n        isPolicyOpen = false;\r\n    }\r\n\r\n    // Define the function for withdrawing excess funds\r\n    function withdrawExcess() public {\r\n        require(\r\n            msg.sender == owner,\r\n            \"Only the owner can withdraw excess funds\"\r\n        );\r\n        require(\r\n            !isPolicyOpen,\r\n            \"Policy must be closed to withdraw excess funds\"\r\n        );\r\n        payable(owner).transfer(poolBalance);\r\n    }\r\n}\r\n",
  "sourcePath": "F:\\ethereum\\mantle\\insurance\\contracts\\P2PInsurance.sol",
  "compiler": {
    "name": "solc",
    "version": "0.8.18+commit.87f61d96.Emscripten.clang"
  },
  "schemaVersion": "3.4.12",
  "updatedAt": "2023-02-22T20:30:58.475Z",
  "devdoc": {
    "kind": "dev",
    "methods": {},
    "version": 1
  },
  "userdoc": {
    "kind": "user",
    "methods": {},
    "version": 1
  }
}